S111FFF2E17BE17DE17FE181E183E185E1874F
S123E0001210CE008012128E02001286208E13008620B701018631B701028632B7010286B7
S123E02033B701038634B70104B60101B70111B60102B70112B60103B70113B60104B7017C
S123E04014B60105B701158EE3A6BDE228BDE15ABDE1C9BDE2257EE0478644BDE165B6FFF7
S123E060D0840227F98661B7FFD1B6FFD084028631BDE1658632BDE1658633BDE1658634C2
S123E080BDE1658620BDE1658644BDE165866FBDE1658675BDE1658667BDE165860DBDE1EC
S123E0A065860ABDE1658620BDE1658620BDE1658620BDE1658620BDE1658EE3A6BDE228E2
S123E0C0861BBDE165865BBDE1658633BDE1658631BDE165866DBDE1658648BDE16586658C
S123E0E0BDE165866CBDE165866CBDE165866FBDE165861BBDE165865BBDE165866DBDE11E
S123E100658620BDE1658620BDE1658648BDE1658665BDE165866CBDE165866CBDE1658615
S123E1206FBDE1658623BDE165BDE225863ABDE165BDE15AB7FFD1BDE1C9BDE2257EE059D5
S123E1407EE059EC918641A791EC918642A791EC918603A791EC917EE000B6FFD0840127C1
S123E160F9B6FFD139B7FFD1B6FFD0840227F91239BDE18BBDE18F127EE171123B123B1202
S123E1803B123B123B123B7EE0003B123F12391286208E03008620EC918641EC918642ECC0
S123E1A0918603EC911286208EF000300A308901F431A631AB33563276326A30658620ECFF
S123E1C091EC91EC91EC911239813127408132274281332744813427468EE2E981352748F4
S123E1E08EE304813627418EE31F8137273A8EE33A813827338EE3558139272C8EE37081EB
S123E2003027258EE38B812D271E7EE2258EE2927EE2288EE2A67EE2288EE2BA7EE2288EA2
S123E220E2D17EE2288EE280A68084FF2706BDE1657EE228398EE271C620F7FFD1EC84F720
S123E240FFD1B7FFD1C67DF7FFD1C661F7FFD1C67CF7FFD1A19427093191B7FFD1397EE21B
S123E26054863EBDE1C930847EE228963EB7FFD13941E29242E2A643E2BA44E2D1000000F6
S123E2801B5B6D2020202020202020202020200A0D001B5B39316D202E202D2D2073746F75
S123E2A070202D2D20001B5B39326D202A203D3D73746172743D3D2020001B5B39336D20C7
S123E2C02E202D2D207761726E696E67202D2D20001B5B3130336D207E207E2052756E6E6C
S123E2E0696E67207E207E20001B5B34316D207E207E2034316D206D657373616765207E67
S123E300207E20001B5B34326D207E207E2034326D2078207820782078207E207E20001BEC
S123E3205B34336D207E207E2034336D2078207820782078207E207E20001B5B34346D2053
S123E3407E207E2034346D2078207820782078207E207E20001B5B34356D207E207E203410
S123E360356D2078207820782078207E207E20001B5B34366D207E207E2034366D20782003
S123E3807820782078207E207E20001B5B34376D207E207E2034376D207820782078207893
S123E3A0207E207E20000A0D1B5B3130346D20202D202D202D2036383039202D202D202D89
S122E3C0202D201B5B306D201B5B3130306D50726573733A20312E2E303A1B5B306D00B5
S9030000FC
