S111FFF2E05EE060E062E064E066E068E06A21
S107020000000000F6
S123E000B7FFD1B6FFD086018402123910CE0100B6FFD1BDE000BDE06EBDE1877EE010B642
S123E020FFD0840127EAB6FFD18B01B7FFD17EE010B6FFD2B7FFD1B6FFD3B7FFD1BDE12392
S123E0407EE0108E00008642BDE1878641BDE1878643BDE1878645BDE187127EE010123B3C
S123E060123B123B123B123B123B7EE00C3BB6FFD0840127F9B6FFD18B00B7FFD139123F2A
S123E0801239BEE1198EE119A680A680A680A680A680A680A682A682A682A682A682A6821D
S123E0A01286208EF000108E0200300A308901F431A631AB33563276326A30658620A680BD
S123E0C0A681A680A681A680A6813080308031A031A03181318130A130A13080308231A040
S123E0E031A212123083308331A331A33183318330A230A2318131813181318130813081E1
S123E10030813081BEE119EC91EC91EC91EC91EC93EC93EC93EC93123968656C6C6F20640E
S123E1206F756786FF4D86004D86014D86804D86FF81008180810181FF86FF810081808133
S123E1400181FF86FF81008180810181FF3941E15A42E16861E1770000003A312D68656C67
S123E1606C6F20646F7567003A322D68656C6C6F2068656E7279003A332D68656C6C6F2030
S123E1806672616E6B00008E00048EE14E6D842718A1802705A1817EE18D3094A680270975
S10FE1A012B7FFD112127EE19C1212395A
S9030000FC
